:040000000C948B00D1
:040040000C94D30148
:1400E40054797065732027642720646F776E6C6F61642C205D
:1400F8004F74686572732072756E206170702E0A0D00000064
:09010C00000000000000000000EA
:14011600CFEFD1E2CDBFDEBFCE51D0400AEA08830024E1E3A5
:14012A00F2E012E0E13BF10711F00192FBCF0083E4EEF0E066
:14013E00A0E0B2E011E000E00BBFE531F10721F0C8953196BD
:140152000D92F9CF0E943102FFCF06C027B620FCFDCF81E1A2
:1401660087BFE89527B626FCF7CF08950E94E202AA92AD8071
:14017A00F801A7BEE895EDDFA990249608950E94E202F801BB
:14018E00090181E087BFE895249608950E94E702219783E032
:1401A20088832091290230912A020091270210912802DEDF33
:1401B600D2DF4427552782E392E0FA01E80FF91F20803324C5
:1401CA00322C222481E392E0FA01E80FF91F20813327220D73
:1401DE00331D8A01D2DF4E5F5F4F4034E0E05E0734F385E001
:1401F20088832091290230912A020091270210912802B6DF0B
:14020600AADF80E490E0A0E0B0E04090290250902A022090C0
:14021A00270230902802280E391E4A1E5B1E309228022092B1
:14022E00270250922A024092290283E088838101920198DF8E
:140242008CDF40E450E082E392E0FA01E80FF91F2080332411
:14025600322C222481E392E0FA01E80FF91F20813327220DE6
:14026A00331D8A018CDF4E5F5F4F4038E0E05E0734F385E0B6
:14027E0088832091290230912A02009127021091280270DFC4
:1402920064DF80E490E0A0E0B0E04090290250902A0220907A
:1402A600270230902802280E391E4A1E5B1E30922802209225
:1402BA00270250922A024092290221960C94EC022090C00047
:1402CE0025FEFCCF0093C60008952090C00027FC03C00FEFE4
:1402E2001FEF0BC02091C0000091C600822F8C7119F00FEFB2
:1402F6001FEF01C011270895AA92BA92EADF58010F3FEFEF7A
:14030A001E07D1F3B990A99008950E94E702AA24BB241BC0C4
:14031E00F80121908F013324322C2224A224B32448E0B7FE1C
:1403320009C081E290E11501220C331C28263926510102C0C6
:14034600AA0CBB1C842F8150482F442371F7C90101979C014D
:14035A002030E0E03E07F4F685010C94EC020FE4AFDF0BE4CC
:14036E00ADDF0DE0ABDF0AE0A9DF2090C00025FEFCCF81E047
:1403820085BF222425BEE0E0F0E009940895222425BC83EB9B
:1403960086BD24BC84E085BD81E080936E0008952A923A9283
:1403AA008A939A93AA93EA932FB62A9283EB86BD80912B02AB
:1403BE0090912C02019690932C0280932B028233E0E09E079A
:1403D20064F02224332430922C0220922B0281E090E0909363
:1403E6002E0280932D0229902FBEE991A9919991899139902A
:1403FA0029901895222425B824B828B827B82BB82AB8089569
:14040E0022242092C5008CE08093C40088E18093C1008EE02F
:140422008093C20082E08093C0000895F894E6DF222425BEA5
:14043600209269002DBA20926E0020926F002092700020929B
:14044A006B0020926C0020926D0020926800209264007894BA
:14045E00D7DF97CFAA24BB2461E044275527E0DF80E092E008
:140472006C0104C0F60101916F0126DFF60120802220C1F7B6
:1404860026C027DF0436E0E01E0709F431C080912D02909108
:14049A002E028130E0E09E07C1F42224332430922E02209212
:1404AE002D0280912F029091300201969093300280932F0246
:1404C2008330E0E09E0729F43092300220922F024ADFD9CF49
:1404D60080912D0290912E028130E0E09E0741F42224332499
:1404EA0030922E0220922D0203E4EADEF0DE0130E0E01E0798
:1404FE0059F7FEDEC02E601709F04FC0F9DEC02E2C2C209480
:14051200621509F048C0AA24BB24F0DEC02E81E392E0FA0123
:14052600E80FF91FC0824F5F5F4FC50101965C018038E0E0E2
:14053A009E077CF3DFDEA02E2A2C3324322C22245101D8DEB5
:14054E00C02E2C2C3324A20CB31C20E830E001E312E0D9DEDA
:1405620068010A151B05E1F480E09CE0A0E0B0E04090290221
:1405760050902A022090270230902802281639064A065B0674
:14058A003CF44038E0E05E071CF002DE4427552706E096DE63
:14059E00639505C005E192DE02C005E18FDEA8DEA02E043099
:1405B20009F0A5CF06E088DE4030450709F0ECDDD2CE3A9391
:1405C6002A931A930A9308955A934A93BA92AA920895A99055
:0805DA00B9904991599108956F
:00000001FF
