:040000000C948000DC
:040040000C94E30039
:1400E4004A757374205465737420666F72206170700A0D00C3
:0700F8000000000000000001
:14010000CFEFD1E2CDBFDEBFCE51D0400AEA08830024EBE1B3
:14011400F2E012E0EB31F10711F00192FBCF0083E4EEF0E07C
:14012800A0E0B2E010E000E00BBFEF3FF10721F0C8953196BC
:14013C000D92F9CF0E944101FFCF2090C00025FEFCCF0093A5
:14015000C60008952090C00027FC03C00FEF1FEF0BC020915A
:14016400C0000091C600822F8C7119F00FEF1FEF01C01127B4
:140178000895AA92BA92EADF58010F3FEFEF1E07D1F3B990CE
:14018C00A99008950FE4D9DF0BE4D7DF0DE0D5DF0AE0D3DFFC
:1401A00081E085BF82E085BFE0E0FCE009940895222425BC03
:1401B40083EB86BD24BC84E085BD81E080936E0008952A92C5
:1401C8003A928A939A93AA93EA932FB62A9283EB86BD8091F0
:1401DC00150290911602019690931602809315028233E0E04E
:1401F0009E0764F022243324309216022092150281E090E0F1
:14020400909318028093170229902FBEE991A99199918991DF
:14021800399029901895222425B824B828B827B82BB82AB820
:14022C00089522242092C5008CE08093C40088E18093C100E4
:140240008EE08093C20082E08093C0000895F894E6DF2224FE
:1402540025BE209269002DBA20926E0020926F00209270004E
:1402680020926B0020926C0020926D002092680020926400F8
:14027C007894D7DF97CF41E0AA24BB24E2DF30C063DF04364B
:14029000E0E01E0709F47CDF80911702909118028130E0E047
:1402A4009E0711F5222433243092180220921702809119022B
:1402B80090911A02019690931A02809319028230E0E09E07DA
:1402CC0079F430921A022092190240E052E004C0FA01019163
:1002E000AF0131DFFA0120802220C1F7CFCF08957E
:00000001FF
